{
  "_format": "hh-sol-artifact-1",
  "contractName": "GovernanceProposals",
  "sourceName": "contracts/proposal.sol",
  "abi": [
    {
      "anonymous": false,
      "inputs": [
        {
          "indexed": true,
          "internalType": "uint256",
          "name": "id",
          "type": "uint256"
        },
        {
          "indexed": false,
          "internalType": "string",
          "name": "title",
          "type": "string"
        },
        {
          "indexed": false,
          "internalType": "string",
          "name": "description",
          "type": "string"
        },
        {
          "indexed": true,
          "internalType": "address",
          "name": "proposer",
          "type": "address"
        },
        {
          "indexed": false,
          "internalType": "uint256",
          "name": "timestamp",
          "type": "uint256"
        }
      ],
      "name": "ProposalCreated",
      "type": "event"
    },
    {
      "inputs": [
        {
          "internalType": "string",
          "name": "_title",
          "type": "string"
        },
        {
          "internalType": "string",
          "name": "_description",
          "type": "string"
        }
      ],
      "name": "createProposal",
      "outputs": [],
      "stateMutability": "nonpayable",
      "type": "function"
    },
    {
      "inputs": [],
      "name": "getAllProposals",
      "outputs": [
        {
          "components": [
            {
              "internalType": "uint256",
              "name": "id",
              "type": "uint256"
            },
            {
              "internalType": "string",
              "name": "title",
              "type": "string"
            },
            {
              "internalType": "string",
              "name": "description",
              "type": "string"
            },
            {
              "internalType": "address",
              "name": "proposer",
              "type": "address"
            },
            {
              "internalType": "uint256",
              "name": "timestamp",
              "type": "uint256"
            }
          ],
          "internalType": "struct GovernanceProposals.Proposal[]",
          "name": "",
          "type": "tuple[]"
        }
      ],
      "stateMutability": "view",
      "type": "function"
    },
    {
      "inputs": [
        {
          "internalType": "uint256",
          "name": "_id",
          "type": "uint256"
        }
      ],
      "name": "getProposal",
      "outputs": [
        {
          "internalType": "uint256",
          "name": "id",
          "type": "uint256"
        },
        {
          "internalType": "string",
          "name": "title",
          "type": "string"
        },
        {
          "internalType": "string",
          "name": "description",
          "type": "string"
        },
        {
          "internalType": "address",
          "name": "proposer",
          "type": "address"
        },
        {
          "internalType": "uint256",
          "name": "timestamp",
          "type": "uint256"
        }
      ],
      "stateMutability": "view",
      "type": "function"
    },
    {
      "inputs": [],
      "name": "proposalCount",
      "outputs": [
        {
          "internalType": "uint256",
          "name": "",
          "type": "uint256"
        }
      ],
      "stateMutability": "view",
      "type": "function"
    },
    {
      "inputs": [
        {
          "internalType": "uint256",
          "name": "",
          "type": "uint256"
        }
      ],
      "name": "proposals",
      "outputs": [
        {
          "internalType": "uint256",
          "name": "id",
          "type": "uint256"
        },
        {
          "internalType": "string",
          "name": "title",
          "type": "string"
        },
        {
          "internalType": "string",
          "name": "description",
          "type": "string"
        },
        {
          "internalType": "address",
          "name": "proposer",
          "type": "address"
        },
        {
          "internalType": "uint256",
          "name": "timestamp",
          "type": "uint256"
        }
      ],
      "stateMutability": "view",
      "type": "function"
    }
  ],
  "bytecode": "0x608060405234801561001057600080fd5b506113f4806100206000396000f3fe608060405234801561001057600080fd5b50600436106100575760003560e01c8063013cf08b1461005c57806365e481e214610090578063c7f758a8146100ac578063cceb68f5146100e0578063da35c664146100fe575b600080fd5b6100766004803603810190610071919061097e565b61011c565b604051610087959493929190610a8b565b60405180910390f35b6100aa60048036038101906100a59190610c21565b610282565b005b6100c660048036038101906100c1919061097e565b610458565b6040516100d7959493929190610a8b565b60405180910390f35b6100e861068d565b6040516100f59190610e40565b60405180910390f35b6101066108e9565b6040516101139190610e62565b60405180910390f35b600060205280600052604060002060009150905080600001549080600101805461014590610eac565b80601f016020809104026020016040519081016040528092919081815260200182805461017190610eac565b80156101be5780601f10610193576101008083540402835291602001916101be565b820191906000526020600020905b8154815290600101906020018083116101a157829003601f168201915b5050505050908060020180546101d390610eac565b80601f01602080910402602001604051908101604052809291908181526020018280546101ff90610eac565b801561024c5780601f106102215761010080835404028352916020019161024c565b820191906000526020600020905b81548152906001019060200180831161022f57829003601f168201915b5050505050908060030160009054906101000a900473ffffffffffffffffffffffffffffffffffffffff16908060040154905085565b60008251116102c6576040517f08c379a00000000000000000000000000000000000000000000000000000000081526004016102bd90610f29565b60405180910390fd5b600081511161030a576040517f08c379a000000000000000000000000000000000000000000000000000000000815260040161030190610f95565b60405180910390fd5b6001600081548092919061031d90610fe4565b91905055506040518060a0016040528060015481526020018381526020018281526020013373ffffffffffffffffffffffffffffffffffffffff16815260200142815250600080600154815260200190815260200160002060008201518160000155602082015181600101908161039491906111d8565b5060408201518160020190816103aa91906111d8565b5060608201518160030160006101000a81548173ffffffffffffffffffffffffffffffffffffffff021916908373ffffffffffffffffffffffffffffffffffffffff160217905550608082015181600401559050503373ffffffffffffffffffffffffffffffffffffffff166001547ff5d4c0708309c1931b917dadb3c3df3bae734fe01cbba335f73796076dfc0fe284844260405161044c939291906112aa565b60405180910390a35050565b600060608060008060008611801561047257506001548611155b6104b1576040517f08c379a00000000000000000000000000000000000000000000000000000000081526004016104a89061133b565b60405180910390fd5b60008060008881526020019081526020016000206040518060a0016040529081600082015481526020016001820180546104ea90610eac565b80601f016020809104026020016040519081016040528092919081815260200182805461051690610eac565b80156105635780601f1061053857610100808354040283529160200191610563565b820191906000526020600020905b81548152906001019060200180831161054657829003601f168201915b5050505050815260200160028201805461057c90610eac565b80601f01602080910402602001604051908101604052809291908181526020018280546105a890610eac565b80156105f55780601f106105ca576101008083540402835291602001916105f5565b820191906000526020600020905b8154815290600101906020018083116105d857829003601f168201915b505050505081526020016003820160009054906101000a900473ffffffffffffffffffffffffffffffffffffffff1673ffffffffffffffffffffffffffffffffffffffff1673ffffffffffffffffffffffffffffffffffffffff168152602001600482015481525050905080600001518160200151826040015183606001518460800151955095509550955095505091939590929450565b6060600060015467ffffffffffffffff8111156106ad576106ac610af6565b5b6040519080825280602002602001820160405280156106e657816020015b6106d36108ef565b8152602001906001900390816106cb5790505b5090506000600190505b60015481116108e1576000808281526020019081526020016000206040518060a00160405290816000820154815260200160018201805461073090610eac565b80601f016020809104026020016040519081016040528092919081815260200182805461075c90610eac565b80156107a95780601f1061077e576101008083540402835291602001916107a9565b820191906000526020600020905b81548152906001019060200180831161078c57829003601f168201915b505050505081526020016002820180546107c290610eac565b80601f01602080910402602001604051908101604052809291908181526020018280546107ee90610eac565b801561083b5780601f106108105761010080835404028352916020019161083b565b820191906000526020600020905b81548152906001019060200180831161081e57829003601f168201915b505050505081526020016003820160009054906101000a900473ffffffffffffffffffffffffffffffffffffffff1673ffffffffffffffffffffffffffffffffffffffff1673ffffffffffffffffffffffffffffffffffffffff168152602001600482015481525050826001836108b2919061135b565b815181106108c3576108c261138f565b5b602002602001018190525080806108d990610fe4565b9150506106f0565b508091505090565b60015481565b6040518060a00160405280600081526020016060815260200160608152602001600073ffffffffffffffffffffffffffffffffffffffff168152602001600081525090565b6000604051905090565b600080fd5b600080fd5b6000819050919050565b61095b81610948565b811461096657600080fd5b50565b60008135905061097881610952565b92915050565b6000602082840312156109945761099361093e565b5b60006109a284828501610969565b91505092915050565b6109b481610948565b82525050565b600081519050919050565b600082825260208201905092915050565b60005b838110156109f45780820151818401526020810190506109d9565b60008484015250505050565b6000601f19601f8301169050919050565b6000610a1c826109ba565b610a2681856109c5565b9350610a368185602086016109d6565b610a3f81610a00565b840191505092915050565b600073ffffffffffffffffffffffffffffffffffffffff82169050919050565b6000610a7582610a4a565b9050919050565b610a8581610a6a565b82525050565b600060a082019050610aa060008301886109ab565b8181036020830152610ab28187610a11565b90508181036040830152610ac68186610a11565b9050610ad56060830185610a7c565b610ae260808301846109ab565b9695505050505050565b600080fd5b600080fd5b7f4e487b7100000000000000000000000000000000000000000000000000000000600052604160045260246000fd5b610b2e82610a00565b810181811067ffffffffffffffff82111715610b4d57610b4c610af6565b5b80604052505050565b6000610b60610934565b9050610b6c8282610b25565b919050565b600067ffffffffffffffff821115610b8c57610b8b610af6565b5b610b9582610a00565b9050602081019050919050565b82818337600083830152505050565b6000610bc4610bbf84610b71565b610b56565b905082815260208101848484011115610be057610bdf610af1565b5b610beb848285610ba2565b509392505050565b600082601f830112610c0857610c07610aec565b5b8135610c18848260208601610bb1565b91505092915050565b60008060408385031215610c3857610c3761093e565b5b600083013567ffffffffffffffff811115610c5657610c55610943565b5b610c6285828601610bf3565b925050602083013567ffffffffffffffff811115610c8357610c82610943565b5b610c8f85828601610bf3565b9150509250929050565b600081519050919050565b600082825260208201905092915050565b6000819050602082019050919050565b610cce81610948565b82525050565b600082825260208201905092915050565b6000610cf0826109ba565b610cfa8185610cd4565b9350610d0a8185602086016109d6565b610d1381610a00565b840191505092915050565b610d2781610a6a565b82525050565b600060a083016000830151610d456000860182610cc5565b5060208301518482036020860152610d5d8282610ce5565b91505060408301518482036040860152610d778282610ce5565b9150506060830151610d8c6060860182610d1e565b506080830151610d9f6080860182610cc5565b508091505092915050565b6000610db68383610d2d565b905092915050565b6000602082019050919050565b6000610dd682610c99565b610de08185610ca4565b935083602082028501610df285610cb5565b8060005b85811015610e2e5784840389528151610e0f8582610daa565b9450610e1a83610dbe565b925060208a01995050600181019050610df6565b50829750879550505050505092915050565b60006020820190508181036000830152610e5a8184610dcb565b905092915050565b6000602082019050610e7760008301846109ab565b92915050565b7f4e487b7100000000000000000000000000000000000000000000000000000000600052602260045260246000fd5b60006002820490506001821680610ec457607f821691505b602082108103610ed757610ed6610e7d565b5b50919050565b7f5469746c652063616e6e6f7420626520656d7074790000000000000000000000600082015250565b6000610f136015836109c5565b9150610f1e82610edd565b602082019050919050565b60006020820190508181036000830152610f4281610f06565b9050919050565b7f4465736372697074696f6e2063616e6e6f7420626520656d7074790000000000600082015250565b6000610f7f601b836109c5565b9150610f8a82610f49565b602082019050919050565b60006020820190508181036000830152610fae81610f72565b9050919050565b7f4e487b7100000000000000000000000000000000000000000000000000000000600052601160045260246000fd5b6000610fef82610948565b91507fffffffffffffffffffffffffffffffffffffffffffffffffffffffffffffffff820361102157611020610fb5565b5b600182019050919050565b60008190508160005260206000209050919050565b60006020601f8301049050919050565b600082821b905092915050565b60006008830261108e7fffffffffffffffffffffffffffffffffffffffffffffffffffffffffffffffff82611051565b6110988683611051565b95508019841693508086168417925050509392505050565b6000819050919050565b60006110d56110d06110cb84610948565b6110b0565b610948565b9050919050565b6000819050919050565b6110ef836110ba565b6111036110fb826110dc565b84845461105e565b825550505050565b600090565b61111861110b565b6111238184846110e6565b505050565b5b818110156111475761113c600082611110565b600181019050611129565b5050565b601f82111561118c5761115d8161102c565b61116684611041565b81016020851015611175578190505b61118961118185611041565b830182611128565b50505b505050565b600082821c905092915050565b60006111af60001984600802611191565b1980831691505092915050565b60006111c8838361119e565b9150826002028217905092915050565b6111e1826109ba565b67ffffffffffffffff8111156111fa576111f9610af6565b5b6112048254610eac565b61120f82828561114b565b600060209050601f8311600181146112425760008415611230578287015190505b61123a85826111bc565b8655506112a2565b601f1984166112508661102c565b60005b8281101561127857848901518255600182019150602085019450602081019050611253565b868310156112955784890151611291601f89168261119e565b8355505b6001600288020188555050505b505050505050565b600060608201905081810360008301526112c48186610a11565b905081810360208301526112d88185610a11565b90506112e760408301846109ab565b949350505050565b7f50726f706f73616c20646f6573206e6f74206578697374000000000000000000600082015250565b60006113256017836109c5565b9150611330826112ef565b602082019050919050565b6000602082019050818103600083015261135481611318565b9050919050565b600061136682610948565b915061137183610948565b925082820390508181111561138957611388610fb5565b5b92915050565b7f4e487b7100000000000000000000000000000000000000000000000000000000600052603260045260246000fdfea264697066735822122014c8c368e914f784616ab5eec4001400d3d42e2adb83c932538160beda131a5264736f6c63430008130033",
  "linkReferences": {},
  "deployedLinkReferences": {}
}